S00F00004176724C6162322E73726563AB
S11300000C94AD000C94BF000C94BF000C94BF0082
S11300100C94BF000C94BF000C94BF000C94BF0060
S11300200C94BF000C94BF000C94BF000C94BF0050
S11300300C94BF000C94C1000C94BF000C94BF003E
S11300400C94BF000C94BF000C94BF000C94BF0030
S11300500C94BF000C94BF000C94BF000C94BF0020
S11300600C94BF000C94BF000001020304050607B2
S113007008090A0B0C0D0E1F101112131415161774
S113008018191A1B1C1D1F1F202122232425262773
S113009028292A2B2C2D2E2F303132333435363764
S11300A038393A3B3C3D3E3F404142434445464754
S11300B048494A4B4C4D4E4F505152535455565744
S11300C058595A5B5C5D5E5F606162636465666734
S11300D068696A6B6C6D6E6F707172737475767724
S11300E078797A7B7C7D7E7F808182838485868714
S11300F088898A8B8C8D8E8F909192939495969704
S113010098999A9B9C9D9E9FA0A1A2A3A4A5A6A7F3
S1130110A8A9AAABACADAEAFB0B1B2B3B4B5B6B7E3
S1130120B8B9BABBBCBDBEBFC0C1C2C3C4C5C6C7D3
S1130130C8C9CACBCCCDCECFE0E1E2E3E4E5E6E743
S1130140E8E9EAEBECEDEEEFFFFEFDFCFBFAF9F873
S1130150F7F6F5F4F3F2F1F0000011241FBECFEF2F
S1130160D8E0DEBFCDBF22E0A0E0B1E001C01D9227
S1130170A230B207E1F70E94EB000C945F010C94EB
S113018000001F920F920FB60F9211248F939F932A
S11301908091000290910102019790930102809353
S11301A000028091000290910102892B39F48BB1F5
S11301B0882311F01BB802C08FEF8BB98AEC93EF40
S11301C090938500809384009F918F910F900FBE30
S11301D00F901F9018958FEF84B915B887B988B917
S11301E08AB98BB91092800085E08093810081E008
S11301F080936F00F89420E030E040E050E005E0A8
S113020010E0C4E8D0E06AEC73EFEE24E394F12C40
S113021085B18F3FE9F32F3F310511F00CF03DC05C
S113022088E690E0A0E0BB27FA01E80FF91F85916A
S11302309491892B91F41093010200930002798325
S1130240688378948091000290910102181619062F
S1130250CCF3F89440E050E0DBCF88E690E0A0E0F7
S1130260BB27FA01E80FF91F8491F901E050FF4F11
S113027080834F5F5F4F2F5F3F4FF0920102E09208
S1130280000279836883789480910002909101023E
S113029018161906CCF3F894BBCF109301020093FF
S11302A0000279836883789480910002909101021E
S11302B018161906CCF3F89420E030E0A9CFF8948E
S10502C0FFCF6A
S9030000FC
