S00F00004176724C6162322E73726563AB
S1130000EAC00000FAC00000F8C00000F6C000001A
S1130010F4C00000F2C00000F0C00000EEC0000018
S1130020ECC00000EAC00000E8C00000E6C0000028
S1130030E4C00000E2C00000E0C00000DEC0000038
S1130040DCC00000DAC00000D8C00000D6C0000048
S1130050D5C00000D2C00000D0C00000CEC0000057
S1130060CCC00000CAC00000C8C00000C6C0000068
S1130070C4C00000C2C00000C0C00000BEC0000078
S1130080BCC00000BAC00000B8C00000B6C0000088
S1130090B4C00000B2C00000B0C00000AEC0000098
S11300A0ACC00000AAC00000A8C00000A6C00000A8
S11300B0A4C00000A2C00000A0C000009EC00000B8
S11300C09CC000009AC0000098C0000096C00000C8
S11300D094C0000092C0000090C000008EC00000D8
S11300E08CC00000000102030405060708090A0B7E
S11300F00C0D0E1F101112131415161718191A1BB4
S11301001C1D1F1F202122232425262728292A2BB2
S11301102C2D2E2F303132333435363738393A3BA3
S11301203C3D3E3F404142434445464748494A4B93
S11301304C4D4E4F505152535455565758595A5B83
S11301405C5D5E5F606162636465666768696A6B73
S11301506C6D6E6F707172737475767778797A7B63
S11301607C7D7E7F808182838485868788898A8B53
S11301708C8D8E8F909192939495969798999A9B43
S11301809C9D9E9FA0A1A2A3A4A5A6A7A8A9AAAB33
S1130190ACADAEAFB0B1B2B3B4B5B6B7B8B9BABB23
S11301A0BCBDBEBFC0C1C2C3C4C5C6C7C8C9CACB13
S11301B0CCCDCECFE0E1E2E3E4E5E6E7E8E9EAEB43
S11301C0ECEDEEEFFFFEFDFCFBFAF9F8F7F6F5F4C3
S11301D0F3F2F1F0000011241FBECFEFD1E2DEBF35
S11301E0CDBF00E00CBF23E0A0E0B2E001C01D924F
S11301F0A230B207E1F72CD0AEC002CF1F920F920B
S11302000FB60F9211248F939F93809100039091C6
S113021001030197909301038093000380910003ED
S113022090910103892B39F488B1882311F018B80F
S113023002C08FEF88B98AEC93EF90938500809386
S113024084009F918F910F900FBE0F901F9018956F
S113025011B880B18F3F11F08FEF82B98FEF84B95D
S113026015B887B988B91092800085E08093810021
S113027081E080936F00F89420E030E040E050E0AB
S113028005E010E0C4E8D0E06AEC73EFEE24E394F8
S1130290F12C80B18F3FE9F32F3F310511F00CF0C1
S11302A048C084EE90E0A0E0BB274A01052E000C74
S11302B0AA08BB08880D991DAA1DBB1DABBFFC0174
S11302C087919691892B91F4109301030093000375
S11302D079836883789480910003909101031816C0
S11302E01906CCF3F89440E050E0D3CF84EE90E0CC
S11302F0A0E0BB27880D991DAA1DBB1DABBFFC0147
S11303008791F901E050FE4F80834F5F5F4F2F5F6D
S11303103F4FF0920103E09200037983688378945D
S1130320809100039091010318161906CCF3F894F8
S1130330B0CF10930103009300037983688378940A
S1130340809100039091010318161906CCF3F894D8
S10D035020E030E09ECFF894FFCFC8
S9030000FC
